{
  "transactions": [
    {
      "hash": "0x2a7f2ba204c7b866caac643e2a895299a625ae7e0ea43c56e1d5dedeb7c1b2a8",
      "transactionType": "CALL",
      "contractName": "LinkToken",
      "contractAddress": "0x779877a7b0d9e8603169ddbd7836e478b4624789",
      "function": "transferAndCall(address,uint256,bytes)",
      "arguments": [
        "0x9DdfaCa8183c41ad55329BdeeD9F6A8d53168B1B",
        "3000000000000000000",
        "0x59944805083386b002b1ed4cfec8a48863f6801af48807df2fa400a3bc846990"
      ],
      "transaction": {
        "from": "0x1350c4669d67902bcdcf67fe0f1f984aadaee632",
        "to": "0x779877a7b0d9e8603169ddbd7836e478b4624789",
        "gas": "0x1a8ee",
        "value": "0x0",
        "input": "0x4000aea00000000000000000000000009ddfaca8183c41ad55329bdeed9f6a8d53168b1b00000000000000000000000000000000000000000000000029a2241af62c00000000000000000000000000000000000000000000000000000000000000000060000000000000000000000000000000000000000000000000000000000000002059944805083386b002b1ed4cfec8a48863f6801af48807df2fa400a3bc846990",
        "nonce": "0x1b",
        "chainId": "0xaa36a7"
      },
      "additionalContracts": [],
      "isFixedGasLimit": false
    }
  ],
  "receipts": [
    {
      "status": "0x1",
      "cumulativeGasUsed": "0x18f254b",
      "logs": [
        {
          "address": "0x779877a7b0d9e8603169ddbd7836e478b4624789",
          "topics": [
            "0xddf252ad1be2c89b69c2b068fc378daa952ba7f163c4a11628f55a4df523b3ef",
            "0x0000000000000000000000001350c4669d67902bcdcf67fe0f1f984aadaee632",
            "0x0000000000000000000000009ddfaca8183c41ad55329bdeed9f6a8d53168b1b"
          ],
          "data": "0x00000000000000000000000000000000000000000000000029a2241af62c0000",
          "blockHash": "0x7e5504c2f4b6ecc594ecbb45027063eb881f84a8f50fbcc92bbeeed32a5b5129",
          "blockNumber": "0x84f359",
          "transactionHash": "0x2a7f2ba204c7b866caac643e2a895299a625ae7e0ea43c56e1d5dedeb7c1b2a8",
          "transactionIndex": "0xee",
          "logIndex": "0x166",
          "removed": false
        },
        {
          "address": "0x779877a7b0d9e8603169ddbd7836e478b4624789",
          "topics": [
            "0xe19260aff97b920c7df27010903aeb9c8d2be5d310a2c67824cf3f15396e4c16",
            "0x0000000000000000000000001350c4669d67902bcdcf67fe0f1f984aadaee632",
            "0x0000000000000000000000009ddfaca8183c41ad55329bdeed9f6a8d53168b1b"
          ],
          "data": "0x00000000000000000000000000000000000000000000000029a2241af62c00000000000000000000000000000000000000000000000000000000000000000040000000000000000000000000000000000000000000000000000000000000002059944805083386b002b1ed4cfec8a48863f6801af48807df2fa400a3bc846990",
          "blockHash": "0x7e5504c2f4b6ecc594ecbb45027063eb881f84a8f50fbcc92bbeeed32a5b5129",
          "blockNumber": "0x84f359",
          "transactionHash": "0x2a7f2ba204c7b866caac643e2a895299a625ae7e0ea43c56e1d5dedeb7c1b2a8",
          "transactionIndex": "0xee",
          "logIndex": "0x167",
          "removed": false
        },
        {
          "address": "0x9ddfaca8183c41ad55329bdeed9f6a8d53168b1b",
          "topics": [
            "0x1ced9348ff549fceab2ac57cd3a9de38edaaab274b725ee82c23e8fc8c4eec7a",
            "0x59944805083386b002b1ed4cfec8a48863f6801af48807df2fa400a3bc846990"
          ],
          "data": "0x000000000000000000000000000000000000000000000000000000000000000000000000000000000000000000000000000000000000000029a2241af62c0000",
          "blockHash": "0x7e5504c2f4b6ecc594ecbb45027063eb881f84a8f50fbcc92bbeeed32a5b5129",
          "blockNumber": "0x84f359",
          "transactionHash": "0x2a7f2ba204c7b866caac643e2a895299a625ae7e0ea43c56e1d5dedeb7c1b2a8",
          "transactionIndex": "0xee",
          "logIndex": "0x168",
          "removed": false
        }
      ],
      "logsBloom": "0x00000004000000000000000000000000001000000020000000000000020000000000000000000000000000000000000000000000000000000000000000000000000000000000000000000008000000000000000000000000008820000020000008000000000000000000000000000000000000000000000000000010000040000000000000000000000000010000800000000020000000000000004000000000000000000000000000000000010000000000420000000000000004000000000000000002000000000000000000000000000000000000000100000000000000000010000000000000800000000000000000000000000000000000000000000000",
      "type": "0x2",
      "transactionHash": "0x2a7f2ba204c7b866caac643e2a895299a625ae7e0ea43c56e1d5dedeb7c1b2a8",
      "transactionIndex": "0xee",
      "blockHash": "0x7e5504c2f4b6ecc594ecbb45027063eb881f84a8f50fbcc92bbeeed32a5b5129",
      "blockNumber": "0x84f359",
      "gasUsed": "0x133a5",
      "effectiveGasPrice": "0x4bce76c3",
      "from": "0x1350c4669d67902bcdcf67fe0f1f984aadaee632",
      "to": "0x779877a7b0d9e8603169ddbd7836e478b4624789",
      "contractAddress": null
    }
  ],
  "libraries": [],
  "pending": [],
  "returns": {},
  "timestamp": 1751903797,
  "chain": 11155111,
  "commit": null
}